:03000000023701C3
:0C370100787FE4F6D8FD7581100237488F
:10000300FEFDFBF7EFDFBF7F0000010203040506DF
:100013000708090A0B0C0D0E0F10111213141516F5
:100023001718191A1B1C1D1E1F20212223242526E5
:100033002728292A2B2C2D2E2F30313233343536D5
:100043003738393A3B3C3D3E3F40414243444546C5
:100053004748494A4B4C4D4E4F50515253545556B5
:100063005758595A5B5C5D5E5F60616263646566A5
:100073006768696A6B6C6D6E6F7071727374757695
:100083007778797A7B7C7D7E7F8081828384858685
:100093008788898A8B8C8D8E8F9091929394959675
:1000A300FFFFFFFFFFFFFFFF00FFFFFF00FFFFFF5B
:1000B3000000FFFF0000FFFF000000FF000000FF43
:1000C300000000000000000000200000000000000D
:1000D30000200000000010000020000000021000BB
:1000E300002004000002100000A004000002100021
:1000F30000A024100002100040A0241000021000F1
:1001030040A024102002100040A024102022100040
:1001130040A024102022144240A024102026144280
:1001230040A025102026144244A025102026144266
:1001330044A025502026144244A02550A026144252
:1001430044A02550A027144344A02550A0271453AE
:1001530044A06550A027545344A06550A0A754530E
:1001630044A06550A8A7545344A06550A8A7565B64
:1001730046A06752A8A7565B46A16752A8A7565B3D
:1001830046B16752A8A7565B46B1675AA8A7565B04
:1001930056B1675AA8A7565B56B1675AA8E7565B8C
:1001A30056B1675AAAE7565F56B1675AAAE7567F10
:1001B30056F9677AAAE7567F56F9677AAEE75E7F04
:1001C3005EFD677BAEE75E7F5EFD677BEEE7DEFF8E
:1001D300DEFDE7FBEFE7FFFFDEFDF7FBFFF7FFFFCA
:1001E300DEFDFFFFFFFFFFFFFFFFFFFFFFFFFFFF3F
:1001F3000000000000000000FFFFFFFFFFFFFFFF04
:10020300FFFFDFFFFFFFFFDFFFFFDFFFFFFFEDDF8D
:10021300FFF7DDFFFFFFEDDFFFF7DDEFFFDFEDDFD3
:10022300FFF75DAFFDDFEDDFFFF75CAFDDDFEDDF98
:10023300FFE75CAFDDDF6DDDFFE75C2FDDD76D9D95
:10024300FFE55C2FDDD7699DFFA55C2BDD57699D1D
:10025300FFA55C29DD57698DBD855C29DD57698D57
:10026300BD855429DD53488D9D855429DD53088D63
:100273009D815409DD13088D95815409DD1208858C
:1002830095015409C91208859501540189120884FE
:100293009501400189020880950040018802080009
:1002A3009400000088000800000000000000000027
:1002B300000000000F0F0F0F00000000F0F0F0F03F
:1002C300F0F0F0F0000000000F0F0F0F000000002F
:1002D3000F0F0F0F00000000F0F0F0F0000000001F
:1002E30000000000F0F0F0F0000000000F0F0F0F0F
:1002F30000000000F00F0F0FF000000000F00F0FE0
:100303000FF000000000F00F000FF000000000FFEE
:1003130000000FF0000000FF000000FF000000FFDE
:10032300FF000000FF00000000FF000000FF0000CE
:100333000000FF000000FF00000000FF000000FFBE
:10034300000000FF000000FF0000FF000000FF00AE
:1003530000FF000000FF0000FF000000FF0000009E
:10036300000000000F0F0F0F00000000FFFFFFFF52
:10037300F0F0F0F0FFFFFFFFFFFFFFFFFFFFFFFFC6
:10038300000000FE000000F7000000EC0000007316
:100393000000004C00000023000000480000002182
:1003A300000048480000212100484848002121213D
:1003B3004848484821212121FF000000FF00000098
:1003C300EE110000FF000000EC120100FF0000002E
:1003D300C8241201EF10000088482412CE21100017
:1003E300888848248C422110888888488884422140
:1003F30088888888888884428888888888888884C8
:100403008888888888888888484848482121212105
:1004130044444444222222222222222244444444A9
:10042300212121214848484831313131C8C8C8C841
:1004330030303030C0C0C0C0C0C0C0C03030303039
:10044300C8C8C8C83131313100484848002121218A
:10045300000048480000212100000048000000215E
:1004630000000048000000210000004000000023BD
:100473000000000000000027000000000000000F43
:10048300000000000000008E000000800000008CCF
:1004930000000088000000880000008C000000803D
:1004A3000000008E000000000000000F00000000AC
:1004B30000000017000000000000001300000010FF
:1004C3000000001100000030000000100000007068
:1004D30000000040000000700000006000000060A9
:1004E3000000006000002040000000600000600089
:1004F3000000402000006000000060000000600079
:100503000000600000204000000060000060000068
:100513000040200000600000006000000060000058
:100523000060000020400000006000006000000048
:100533004020000060000000600000006000000038
:100543007000000040000000700000001000000078
:100553003000000011000000100000001300000034
:100563000000000017000000000000000F00000062
:10057300000000008E000000800000008C000000DE
:1005830088000000880000008C000000800000004C
:100593008E000000000000000F00000000000000BB
:1005A300070000000000000003000000000000003E
:1005B3000100000000000000010000000000000036
:1005C3000101000000000000010101000000000023
:1005D3000001010100000000000001030000000011
:1005E30000000007000000000000000F00000000F2
:1005F3000000008F00000000000000CF000000009A
:10060300000000EF00000000000000FF00000000F9
:10061300000000FF00000010000000FF0000003099
:10062300000000FF00000070000000FF000000F069
:10063300000000FF000000F8000000FF000000FCC5
:10064300000000FF000000FE000000FF000000FFAC
:100653000000000100000000000000110000000085
:100663000000001100000010000000100000001145
:10067300000000000000001300000000000000075D
:10068300000000000000000E000000000000800CCD
:100693000000800000008008000088000000800047
:1006A30000008C000000000000000E0000000000AD
:1006B300000007000000000000100300000000001D
:1006C30000100100001000000010000000110000E5
:1006D30000000000001300000000000000070000FD
:1006E30000000000000E000000000000800C00006D
:1006F30080000000800800008800000080000000E7
:100703008C000000000000000E000000000000004C
:1007130007000000000000000300000000000000CC
:1007230001000000000000001301000000000000B1
:1007330037330100100000007F3713013110000030
:10074300FF7F371373311000FFFF7F3FFF773311B4
:10075300FFFFFFFFFFFF7733FFFFFFFFFFFFFFFFFA
:10076300FFFFFFFEFFFFFFFFFFFFFEECFFFFFFFFAB
:10077300FFFEECC8FFFFFFEFFEECC880FFFFEFCEEC
:10078300ECC88000FFEFCE8CC8800000EFCE8C0851
:1007930080000000CE8C0800000000008C080000E0
:1007A3000000000008000000000000000800000036
:1007B300000000008C08000080000000CE8C0800C0
:1007C300C8800000EFCE8C08ECC88000FFEFCE8C11
:1007D300FEECC880FFFFEFCEFFFEECC8FFFFFFEF8C
:1007E300FFFFFEECFFFFFFFFFFFFFFFEFFFFFFFF2B
:1007F300FFFFFFFFFFFFFFFFFFFFFFFFFFFFFEEC1A
:10080300FFFFFFEFFFFEECC8FFFFEFCEFEECC8805B
:10081300FFEFCE8CECC88000EFCE8C08C8800000C0
:10082300CE8C0800800000008C080000000000004F
:1008330008000000000000000800000000000000A5
:100843000C00000000000000060000000000000093
:100853000300000000000000110000000000000081
:100863001000000010000000000000001100000054
:100873000000000001000000000000001301000060
:100883001000000017010100110000001F01010109
:10089300130100009F090113970101109F09091714
:1008A3009F0101119F09099F9F0901939F09099FB7
:1008B3009F09099F9F09099F9F09099F9F09099FF5
:1008C3000699990606999906006666000066660011
:1008D300006060000060600000C0C00000C0C00095
:1008E3000000000000CCCC0000000000CCCC0000D5
:1008F30000000000666600000000000033330000C3
:100903000000000000333300000000000000333318
:100913000000000000006666000000000000CCCC70
:100923000000C0C00000C0C00000CCCC000000002C
:1009330000CCCC0000000000CCCC00000000000084
:100943006666000000000000333300000000000072
:10095300333333000000000033333333000000002F
:1009630033337777000000003333FFFF00000000CC
:1009730033FFFFFF00000000FFFFFFFF0000000048
:10098300FFFFFFFFCCCC0000FFFFFFFFEEEE0000F8
:10099300FFFFFFFFFFFF0000FFFFFFFFFFFF33002D
:1009A300FFFFFFFFFFFF3333FFFFFFFFFFFF7777FC
:1009B300FFFFFFFFFFFFFFFF9F09099F9F09099F9C
:1009C300F09090F09F09099F00000000FF9999FFA4
:1009D300000000000F09090F000000000F090900C3
:1009E300000000000F090000000000000F000000DD
:1009F30000000000FF000000F0000000FF00000006
:100A0300FF000000FF000000FF000000FF000000E7
:100A1300FE010000FF000000FC020100FF000000D7
:100A2300F8040201FF000000F0080403FF000000C7
:100A3300F0000807FF000000F000000FFF000000B7
:100A4300E010000FFF000000C020100FFF000000A7
:100A53008040201FFF0000000080403FFF00000097
:100A63000000807FFF000000000000FFFF00000087
:100A7300000000FFEF100000000000FFCF20100077
:100A8300000000FF8F402010000000FF0F80403067
:100A9300000000FF0F008070000000FF0F0000F057
:100AA300000000FF0E0100F0000000FF0C0201F047
:100AB300000000FF080402F1000000FF000804F337
:100AC300000000FF000008F7000000FF000000FF27
:100AD300131313131010101017171717000000002B
:100AE3000F0F0F0F000000008E8E8E8E000000008F
:100AF3008C8C8C8C80808080888888888888888883
:100B0300808080808C8C8C8C000000008E8E8E8E7A
:100B1300000000000F0F0F0F00000000171717173A
:100B230010101010131313131111111111111111AE
:100B330011111110111111131111110011111117AC
:100B4300111110001111130F111000001113178E42
:100B53001000008013170F8C00000088170F8E8879
:100B63000000808C0F8E8C800080888E8E8C880095
:100B730080888C0F8C888000888C8E0F8880000082
:100B83008C8E0F0F800000008E0F0F0F00000000EF
:100B93000F0F0F0F00000000000000000000000016
:100BA3000100000000000000000100000000000040
:100BB300000001000000000000000013000000001E
:100BC3000000002500000010000000490000005153
:100BD3000000004900000084000000000100000044
:100BE3000000000000010000000000000000010000
:100BF300000000000000001300000030000000456A
:100C03000000004100000089000000000000000017
:100C130001000000080000000001000000080000BF
:100C23000000010000000800000000130000008C19
:100C3300000000E400000032000000C400000031A6
:100C43000000000000000000080000000000000099
:100C53000008000000000000000008000000000081
:100C630000000008000000000000008C00000000ED
:100C73000000002A000000680000001A0000001BAA
:100C8300000000190000001B00000000000000002D
:100C93000000000008000000000000000008000041
:100CA3000000000000000800000000000000000831
:100CB300000000000000008C000000800000004ADB
:100CC30000000080000000290000002C0000001933
:100CD3000000001C000000190100000000000000DB
:100CE30033330000000000007777070077310000FE
:100CF300FF77771177773100FFFFFF77FFFF7331BE
:100D0300FFFFFFFFFFFFFF73FFFFFFFFFFFFFFFF7C
:100D1300FFFFECCCFFFFFFEFFFFECCC8FFFFEFCEE2
:100D2300FFECC888FFEFEC8CFEC88880FECE8C8079
:100D330000000000CECC880000000000CCCC0000F6
:100D430000000000CCCC000000000000CCCC000070
:100D530000000000EECC0800E0800000EFCC8888A3
:100D6300ECC88000FFEE8C88EEECCC00FFEFCC8C5F
:100D7300FEFEEC8CFFEFEFECFFFFFEECFFFFFFEF5F
:100D8300FFFFFFFFFFFFFFFFC3E77E3C3C7EE7C3A0
:100D930042E77E24247EE742006676200066E7422F
:100DA3000066660000666600006060000060600028
:100DB30000606000006060000100000000000000AF
:100DC30000000000000000003333000000000000BA
:100DD3000500050050005000090000090900000942
:100DE30005000500500050003333000000000000F0
:100DF30000333300000000000066660000000000BE
:100E0300006060000060600009000009090000093B
:100E1300006060000060600001000000000000004E
:100E230001010000000000000101010000000000BA
:100E3300000101010000000000000111000000009A
:100E4300000000110000001000000010000000115D
:100E53000000000000000013000000000000000775
:100E6300000000000000000E000000000000008CE5
:100E7300000000800000008800000088000000805F
:100E830000000488000000000000060800000000C5
:100E93000000070000000000000013000000000035
:100EA300000031000000000000007000000000009E
:100EB300000060000000400000004000000044000B
:100EC3000000000000004C000000000000080C00BF
:100ED30000000000000C080000000000000E0000ED
:100EE30000000000000700000000000000130000E5
:100EF300000000000031000000000000007000004E
:100F03000000000000E000000080000000C00000BE
:100F130000C000000080000000E0000000000000AE
:100F23000062000000000000002600000000000036
:100F3300000E000000000000080C0000000000008C
:100F43000C080000000000000E000000000000007C
:100F53000F000000000000001F0000000000000060
:100F63003F000000000000007F00000000000000C0
:100F7300FF00000000000000FF00000080000000F0
:100F8300FF000000C0000000FF000000E0000000C0
:100F9300FF000000F0000000FF000000F10000006F
:100FA300FF000000F3000000FF000000F700000056
:100FB300FF000000FF000000000000600000006070
:100FC300000060000000600000600000006000009E
:100FD30060000000600000009F0000009F00000010
:100FE300009F0000009F000000009F0000009F0082
:100FF3000000009F0000009F0800000000000000A8
:101003000C000000000000000E00000000000000C3
:1010130007000000000000001300000000000000B3
:10102300110000001000000010000000110000007B
:101033000000000013000000000000000700000093
:10104300000000000E000000000000008C00000003
:10105300800000008800000088000000800000007D
:1010630088040000000000000806000000000000E3
:101073000007000000000000001300000000000053
:10108300001100000010000000100000001100001B
:101093000000000000110200000000000001060033
:1010A3000000000000000E000000000000008C00A3
:1010B300000080000000880000008800000080001D
:1010C30000008C000000000000000E000000000083
:1010D30000000700000000000000031000000000F3
:1010E30000000110000000100000001000000011BB
:1010F30000000000000000130000000000000007D3
:10110300000000000000000E000000000000008C42
:1011130000000080000000880000008800000080BC
:10112300000000C80000000000000048000000208C
:1011330000000048000000210000004800000121D9
:101143000000004800012121000040480121212125
:10115300004048482121212140484848212121219C
:101163004848484821212121000000008C880000C4
:1011730000000000CC8C000000000000CCCC00007C
:10118300000000006666000000000000333300002A
:101193000000000001333200000000000021331280
:1011A300000000000000333300000000000063363D
:1011B3000000000000006666000000000000CE642E
:1011C300000000000000CCCC0000C0C00000C0C084
:1011D3000000CCCC0000000000006CC60000000042
:1011E3000000666600000000000066330000000097
:1011F3000000333300000000002132130000000020
:10120300003333000000000033330000000000000F
:10121300000000FE000000F7000000EE0000007771
:10122300000000EC00000063000000CC000000217F
:1012330000000048000000210000004800000021D9
:101243000000004C000000230000002200000044C6
:10125300000000210000004800000031000000C829
:10126300000000D0000000B0000000C80000003102
:101273000000004800000021000048000000210099
:10128300000044000000220000002200000044008F
:101293000000210000004800000031000000C800E9
:1012A3000000D0000000B000000048000000210052
:1012B300004C000000230000002200000044000056
:1012C30000210000004800000031000000C80000B9
:1012D30000D0000000B00000004800000021000022
:1012E300440000002100000026000000460000002A
:1012F300210000004800000031000000C800000089
:10130300D0000000B0000000C80000003100000061
:10131300480000002100000048480000212100008F
:1013230048484800212121004848484821212121DB
:1013330000000052000000C20000A052000064C27E
:101343000040A45200A064C20042A45200AA64C296
:101353006242A45226AA64C26242A40026AA64007E
:101363006242000026AA000062000000260000007E
:101373000000000000000000000000FF000000FF6C
:101383000000FFFF0000FFFF00FFFFFF00FFFFFF64
:101393000000FFFF0000FFFF000000FF000000FF50
:1013A3000000FFFF0000FFFF00FFFFFF00FFFFFF44
:1013B300FFFFFFFFFFFFFFFF00000FFF000000FF25
:1013C300000FFFFF00000FFF0F0F0FFF000FFFFFC6
:1013D300000FFFFF0F0F0FFF0000000000000000D1
:1013E30000003333000000000033333300000000FB
:1013F30033333333000000000000003000000030BE
:1014030000003030000030300030303000303030F9
:101413003030303030303030000000000000000148
:1014230000000000000001010000000000010101B4
:1014330000000000010101010000000002010101A0
:101443000000000004020101000000000804020182
:101453000000000008080402000000000808080457
:101463000000000008080808000000008080808059
:1014730000000000404040400000000020202020E9
:1014830000000000101010101010101000000000D9
:1014930020202020000000004040404000000000C9
:1014A3008080808000000000080808080000000019
:1014B30004080808000000000204080800000000F7
:1014C3000102040800000000010204000000000003
:1014D3000102000000000000010000000000000005
:1014E300FF000000FF000000FE010000FF000000FD
:1014F300FE000100FF000000FE000001FF000000ED
:10150300FC020000FF000000FC000200FF000000DE
:10151300FC000002FF000000F8040000FF000000D0
:10152300F8000400FF000000F8000004FF000000C2
:10153300F0080000FF000000F0000800FF000000BA
:10154300F0000008FF000000E0100000FF000000B2
:10155300E0001000FF000000E0000010FF000000AA
:10156300C0200000FF000000C0002000FF000000BA
:10157300C0000020FF00000080400000FF000000CA
:1015830080004000FF00000080000040FF000000DA
:1015930000800000FF00000000008000FF0000004A
:1015A30000000080FF000000000000007722000020
:1015B300000000003333000030000000303300002F
:1015C30030300000303000003333000000000000F2
:1015D300FFFFFFFFFFFFFFFF000000000000000010
:1015E300FFFFFFFFFFFFFFFF000000000000000000
:1015F300FFFFFFFFFFFFFFFF0000000000000000F0
:0938AF0001080A010901010C00E5
:10389B00E4FEEEC39F500CE4FD0DEDD3949440F980
:0338AB000E80EF9D
:0138AE0022F7
:103863007D507C00AB07AA06D3EB9400EA9400409A
:1038730007EB1B70F31A80F0ED1D70011CED4C700B
:01388300E361
:013884002221
:02378D00A9058C
:10378F00B90105E4F5B08003E4F580E4F5A0740B0E
:10379F002FF58274003EF583E493F510FF7E00123F
:1037AF003863B9010575B0FF80037580FFE4F5A09C
:0D37BF00C374969510FFE49400FE02386379
:0237CC00A9054D
:1037CE00B9010575B0FF80037580FFE4F5A0740B99
:1037DE002FF58274003EF583E493F510FF7E001200
:1037EE003863B90105E4F5B08003E4F580E4F5A093
:0D37FE00C374969510FFE49400FE0238633A
:02380B008F0D1F
:10380D00E4F50EF50FAD0DAF0FAE0E1237CC050F63
:10381D00E50F7002050EC39496E50E64809480400A
:10382D00E4E50DB40105E4F5B08003E4F580E4F5BD
:01383D00A0EA
:01383E002267
:02383F008F0DEB
:10384100E4F50EF50FAD0DAF0FAE0E12378D050F6E
:10385100E50F7002050EC39496E50E6480948040D6
:01386100E482
:013862002243
:041DC000AC07A905BE
:101DC400BC0105E4F5B0800EBC0205E4F580800694
:101DD40075B0FF7580FFE4F50DF50EE4F50FF51011
:101DE400E4FBFA74032BF58274003AF583E493F56B
:101DF400A0BC010FE50EAE0D7803C333CE33CED8AD
:101E0400F98036BC0226E50EAE0D7803C333CE331B
:101E1400CED8F924A3F58274003EF583E5822BF530
:101E240082E5833AF583E493F5B08024E50EAE0DA4
:101E34007803C333CE33CED8F924A3F58274003E9D
:101E4400F583E5822BF582E5833AF583E493F58007
:101E5400AF0112389B0BBB00010AEB64084A708384
:101E64000510E5107002050FC3940FE50F6480940C
:101E7400805003021DE4050EE50E7002050DC394A7
:0C1E840005E50D648094805003021DDF12
:011E9000222F
:04196900AC07A90519
:10196D00BC0105E4F5B0800EBC0205E4F5808006EF
:10197D0075B0FF7580FFE4F50DF50EE4F50FF5106C
:10198D00E4FBFA74032BF58274003AF583E493F5C6
:10199D00A0BC0126E50EAE0D7803C333CE33CED8F1
:1019AD00F924CBF58274003EF583E5822BF582E5B3
:1019BD00833AF583E493F580804FBC0226E50EAEA5
:1019CD000D7803C333CE33CED8F924CBF582740012
:1019DD003EF583E5822BF582E5833AF583E493F5B5
:1019ED00B08026E50EAE0D7803C333CE33CED8F9D5
:1019FD0024CBF58274003EF583E5822BF582E583D9
:101A0D003AF583E493F5B0F580AF0112389B0BBB2B
:101A1D0000010AEB64084A60030219900510E510F5
:101A2D007002050FC3940AE50F6480948050030281
:101A3D00198D050EE50E7002050DC39426E50D6496
:081A4D00809480500302198807
:011A5500226E
:041E9100AC07A905EC
:101E9500BC0105E4F5B0800EBC0205E4F5808006C2
:101EA50075B0FF7580FFE4F50DF50EE4F50FF5103F
:101EB500E4FBFA74032BF58274003AF583E493F599
:101EC500A0BC010FE50EAE0D7803C333CE33CED8DB
:101ED500F98036BC0226E50EAE0D7803C333CE334A
:101EE500CED8F924FBF58274013EF583E5822BF506
:101EF50082E5833AF583E493F5B08024E50EAE0DD3
:101F05007803C333CE33CED8F924FBF58274013E72
:101F1500F583E5822BF582E5833AF583E493F58035
:101F2500AF0112389B0BBB00010AEB64084A7083B2
:101F35000510E5107002050FC3940AE50F6480943F
:101F4500805003021EB5050EE50E7002050DC39403
:0C1F550017E50D648094805003021EB05C
:011F6100225D
:041A5600AC07A9052B
:101A5A00BC0105E4F5B0800EBC0205E4F580800601
:101A6A0075B0FF7580FFE4F50DF50EE4F50FF5107E
:101A7A00E4FBFA74032BF58274003AF583E493F5D8
:101A8A00A0BC0126E50EAE0D7803C333CE33CED803
:101A9A00F924B3F58274023EF583E5822BF582E5DB
:101AAA00833AF583E493F580804FBC0226E50EAEB7
:101ABA000D7803C333CE33CED8F924B3F58274023A
:101ACA003EF583E5822BF582E5833AF583E493F5C7
:101ADA00B08026E50EAE0D7803C333CE33CED8F9E7
:101AEA0024B3F58274023EF583E5822BF582E58301
:101AFA003AF583E493F580F5B0AF0112389B0BBB3E
:101B0A0000010AEB64084A6003021A7D0510E51019
:101B1A007002050FC3940AE50F6480948050030293
:101B2A001A7A050EE50E7002050DC39404E50D64DC
:081B3A008094805003021A752B
:011B42002280
:041F6200AC07A9051A
:101F6600BC0105E4F5B0800EBC0205E4F5808006F0
:101F760075B0FF7580FFE4F50DF50EE4F50FF5106D
:101F8600E4FBFA74032BF58274003AF583E493F5C7
:101F9600A0BC010FE50EAE0D7803C333CE33CED809
:101FA600F98036BC0226E50EAE0D7803C333CE3378
:101FB600CED8F924D3F58274023EF583E5822BF55B
:101FC60082E5833AF583E493F5B08024E50EAE0D01
:101FD6007803C333CE33CED8F924D3F58274023EC8
:101FE600F583E5822BF582E5833AF583E493F58064
:101FF600AF0112389B0BBB00010AEB64084A7083E1
:102006000510E5107002050FC3940AE50F6480946D
:10201600805003021F86050EE50E7002050DC3945F
:0C20260004E50D648094805003021F81CB
:01203200228B
:04203300AC07A90548
:10203700BC0105E4F5B0800EBC0205E4F58080061E
:1020470075B0FF7580FFE4F50DF50EE4F50FF5109B
:10205700E4FBFA74032BF58274003AF583E493F5F5
:10206700A0BC010FE50EAE0D7803C333CE33CED837
:10207700F98036BC0226E50EAE0D7803C333CE33A6
:10208700CED8F924F3F58274023EF583E5822BF569
:1020970082E5833AF583E493F5B08024E50EAE0D2F
:1020A7007803C333CE33CED8F924F3F58274023ED6
:1020B700F583E5822BF582E5833AF583E493F58092
:1020C700AF0112389B0BBB00010AEB64084A70830F
:1020D7000510E5107002050FC3940AE50F6480949C
:1020E700805003022057050EE50E7002050DC394BC
:0C20F70006E50D64809480500302205226
:0121030022B9
:04210400AC07A90576
:10210800BC0105E4F5B0800EBC0205E4F58080064C
:1021180075B0FF7580FFE4F50DF50EE4F50FF510C9
:10212800E4FBFA74032BF58274003AF583E493F523
:10213800A0BC010FE50EAE0D7803C333CE33CED865
:10214800F98036BC0226E50EAE0D7803C333CE33D4
:10215800CED8F92423F58274033EF583E5822BF566
:1021680082E5833AF583E493F5B08024E50EAE0D5D
:102178007803C333CE33CED8F92423F58274033ED3
:10218800F583E5822BF582E5833AF583E493F580C0
:10219800AF0112389B0BBB00010AEB64084A70833D
:1021A8000510E5107002050FC3940AE50F648094CA
:1021B800805003022128050EE50E7002050DC39418
:0C21C80004E50D64809480500302212384
:0121D40022E8
:0421D500AC07A905A5
:1021D900BC0105E4F5B0800EBC0205E4F58080067B
:1021E90075B0FF7580FFE4F50DF50EE4F50FF510F8
:1021F900E4FBFA74032BF58274003AF583E493F552
:10220900A0BC010FE50EAE0D7803C333CE33CED893
:10221900F98036BC0226E50EAE0D7803C333CE3302
:10222900CED8F92443F58274033EF583E5822BF574
:1022390082E5833AF583E493F5B08024E50EAE0D8B
:102249007803C333CE33CED8F92443F58274033EE1
:10225900F583E5822BF582E5833AF583E493F580EE
:10226900AF0112389B0BBB00010AEB64084A70836B
:102279000510E5107002050FC3940AE50F648094F8
:102289008050030221F9050EE50E7002050DC39475
:0C22990004E50D6480948050030221F4E1
:0122A5002216
:0422A600AC07A905D3
:1022AA00BC0105E4F5B0800EBC0205E4F5808006A9
:1022BA0075B0FF7580FFE4F50DF50EE4F50FF51026
:1022CA00E4FBFA74032BF58274003AF583E493F580
:1022DA00A0BC010FE50EAE0D7803C333CE33CED8C2
:1022EA00F98036BC0226E50EAE0D7803C333CE3331
:1022FA00CED8F92463F58274033EF583E5822BF583
:10230A0082E5833AF583E493F5B08024E50EAE0DB9
:10231A007803C333CE33CED8F92463F58274033EEF
:10232A00F583E5822BF582E5833AF583E493F5801C
:10233A00AF0112389B0BBB00010AEB64084A708399
:10234A000510E5107002050FC3940AE50F64809426
:10235A008050030222CA050EE50E7002050DC394D1
:0C236A0004E50D6480948050030222C53D
:012376002244
:041C1800AC07A90567
:101C1C00BC0105E4F5B0800EBC0205E4F58080063D
:101C2C0075B0FF7580FFE4F50DF50EE4F50FF510BA
:101C3C00E4FBFAE4F58074032BF58274003AF58327
:101C4C00E493F5A0BC010FE50EAE0D7803C333CEC3
:101C5C0033CED8F98036BC0226E50EAE0D7803C320
:101C6C0033CE33CED8F92483F58274033EF583E565
:101C7C00822BF582E5833AF583E493F5B08024E575
:101C8C000EAE0D7803C333CE33CED8F92483F58250
:101C9C0074033EF583E5822BF582E5833AF583E404
:101CAC0093F580AF0112389B0BBB00010AEB640863
:101CBC004A70800510E5107002050FC3940AE50FF9
:101CCC00648094805003021C3C050EE50E700205E6
:0F1CDC000DC39407E50D648094805003021C37FC
:011CEB0022D6
:04237700AC07A90501
:10237B00BC0105E4F5B0800EBC0205E4F5808006D7
:10238B0075B0FF7580FFE4F50DF50EE4F50FF51054
:10239B00E4FBFA74032BF58274003AF583E493F5AE
:1023AB00A0BC010FE50EAE0D7803C333CE33CED8F0
:1023BB00F98036BC0226E50EAE0D7803C333CE335F
:1023CB00CED8F924BBF58274033EF583E5822BF559
:1023DB0082E5833AF583E493F5B08024E50EAE0DE8
:1023EB007803C333CE33CED8F924BBF58274033EC6
:1023FB00F583E5822BF582E5833AF583E493F5804B
:10240B00AF0112389B0BBB00010AEB64084A7083C7
:10241B000510E5107002050FC3940AE50F64809454
:10242B0080500302239B050EE50E7002050DC3942D
:0C243B000FE50D6480948050030223968E
:012447002272
:041B4300AD087F0169
:041B4700AC07A90539
:101B4B00BC0105E4F5B0800EBC0205E4F58080060F
:101B5B0075B0FF7580FFE4F50DF50EE4F50FF5108C
:101B6B00E4FBFA74032BF58274003AF583E493F5E6
:101B7B00A0BC010FE50EAE0D7803C333CE33CED828
:101B8B00F98036BC0226E50EAE0D7803C333CE3397
:101B9B00CED8F9240BF58274043EF583E5822BF540
:101BAB0082E5833AF583E493F5B08024E50EAE0D20
:101BBB007803C333CE33CED8F9240BF58274043EAD
:101BCB00F583E5822BF582E5833AF583E493F58083
:101BDB00AF0112389B0BBB00010AEB64084A708300
:101BEB000510E5107002050FC39408E50F6480948F
:101BFB00805003021B6B050EE50E7002050DC3949E
:0C1C0B0008E50D648094805003021B6605
:011C170022AA
:04363E00AC07A90527
:10364200BC0105E4F5B0800EBC0205E4F5808006FD
:1036520075B0FF7580FFE4F50DF50EE4F50FF5107A
:10366200E4FBFABC010FE50EAE0D7803C333CE3393
:10367200CED8F98036BC0226E50EAE0D7803C333F0
:10368200CE33CED8F9244BF58274043EF583E5821D
:103692002BF582E5833AF583E493F5B08024E50EB9
:1036A200AE0D7803C333CE33CED8F9244BF58274F2
:1036B200043EF583E5822BF582E5833AF583E493B4
:1036C200F580AF0112389B0BBB00010AEB64084A7C
:1036D20070910510E5107002050FC3940AE50F649E
:1036E2008094805003023662050EE50E7002050DCD
:0E36F200C39403E50D64809480500302365D9E
:0137000022A6
:04244800AC07A9052F
:10244C00BC0105E4F5B0800EBC0205E4F580800605
:10245C0075B0FF7580FFE4F50DF50EE4F50FF51082
:10246C00E4FBFA74032BF58274003AF583E493F5DC
:10247C00A0BC010FE50EAE0D7803C333CE33CED81E
:10248C00F98036BC0226E50EAE0D7803C333CE338D
:10249C00CED8F92463F58274043EF583E5822BF5DE
:1024AC0082E5833AF583E493F5B08024E50EAE0D16
:1024BC007803C333CE33CED8F92463F58274043E4B
:1024CC00F583E5822BF582E5833AF583E493F58079
:1024DC00AF0112389B0BBB00010AEB64084A7083F6
:1024EC000510E5107002050FC3940AE50F64809483
:1024FC0080500302246C050EE50E7002050DC3948A
:0C250C002BE50D648094805003022467CE
:0125180022A0
:04251900AC07A9055D
:10251D00BC0105E4F5B0800EBC0205E4F580800633
:10252D0075B0FF7580FFE4F50DF50EE4F50FF510B0
:10253D00E4FBFA74032BF58274003AF583E493F50A
:10254D00A0BC010FE50EAE0D7803C333CE33CED84C
:10255D00F98036BC0226E50EAE0D7803C333CE33BB
:10256D00CED8F924BBF58274053EF583E5822BF5B3
:10257D0082E5833AF583E493F5B08024E50EAE0D44
:10258D007803C333CE33CED8F924BBF58274053E20
:10259D00F583E5822BF582E5833AF583E493F580A7
:1025AD00AF0112389B0BBB00010AEB64084A708324
:1025BD000510E5107002050FC39408E50F648094B3
:1025CD0080500302253D050EE50E7002050DC394E6
:0C25DD0013E50D64809480500302253843
:0125E90022CF
:0425EA00AC07A9058C
:1025EE00BC0105E4F5B0800EBC0205E4F580800662
:1025FE0075B0FF7580FFE4F50DF50EE4F50FF510DF
:10260E00E4FBFA74032BF58274003AF583E493F538
:10261E00A0BC010FE50EAE0D7803C333CE33CED87A
:10262E00F98036BC0226E50EAE0D7803C333CE33E9
:10263E00CED8F92453F58274063EF583E5822BF548
:10264E0082E5833AF583E493F5B08024E50EAE0D72
:10265E007803C333CE33CED8F92453F58274063EB5
:10266E00F583E5822BF582E5833AF583E493F580D5
:10267E00AF0112389B0BBB00010AEB64084A708352
:10268E000510E5107002050FC3940AE50F648094DF
:10269E0080500302260E050EE50E7002050DC39442
:0C26AE0003E50D648094805003022609AF
:0126BA0022FD
:0426BB00AC07A905BA
:1026BF00BC0105E4F5B0800EBC0205E4F580800690
:1026CF0075B0FF7580FFE4F50DF50EE4F50FF5100D
:1026DF00E4FBFA74032BF58274003AF583E493F567
:1026EF00A0BC010FE50EAE0D7803C333CE33CED8A9
:1026FF00F98036BC0226E50EAE0D7803C333CE3318
:10270F00CED8F9242BF58274073EF583E5822BF59D
:10271F0082E5833AF583E493F5B08024E50EAE0DA0
:10272F007803C333CE33CED8F9242BF58274073E0A
:10273F00F583E5822BF582E5833AF583E493F58003
:10274F00AF0112389B0BBB00010AEB64084A708380
:10275F000510E5107002050FC3940AE50F6480940D
:10276F008050030226DF050EE50E7002050DC3949F
:0C277F002AE50D6480948050030226DAE5
:01278B00222B
:04278C00AC07A905E8
:10279000BC0105E4F5B0800EBC0205E4F5808006BE
:1027A00075B0FF7580FFE4F50DF50EE4F50FF5103B
:1027B000E4FBFA74032BF58274003AF583E493F595
:1027C000A0BC010FE50EAE0D7803C333CE33CED8D7
:1027D000F98036BC0226E50EAE0D7803C333CE3346
:1027E000CED8F9247BF58274083EF583E5822BF57B
:1027F00082E5833AF583E493F5B08024E50EAE0DCF
:102800007803C333CE33CED8F9247BF58274083EE7
:10281000F583E5822BF582E5833AF583E493F58031
:10282000AF0112389B0BBB00010AEB64084A7083AE
:102830000510E5107002050FC3940AE50F6480943B
:102840008050030227B0050EE50E7002050DC394FB
:0C28500008E50D6480948050030227AB63
:01285C002259
:04285D00AC07A90516
:10286100BC0105E4F5B0800EBC0205E4F5808006EC
:1028710075B0FF7580FFE4F50DF50EE4F50FF51069
:10288100E4FBFA74032BF58274003AF583E493F5C3
:10289100A0BC010FE50EAE0D7803C333CE33CED805
:1028A100F98036BC0226E50EAE0D7803C333CE3374
:1028B100CED8F924BBF58274083EF583E5822BF569
:1028C10082E5833AF583E493F5B08024E50EAE0DFD
:1028D1007803C333CE33CED8F924BBF58274083ED6
:1028E100F583E5822BF582E5833AF583E493F58060
:1028F100AF0112389B0BBB00010AEB64084A7083DD
:102901000510E5107002050FC3940AE50F64809469
:10291100805003022881050EE50E7002050DC39457
:0C29210020E50D64809480500302287CA7
:01292D002287
:04292E00AC07A90544
:10293200BC0105E4F5B0800EBC0205E4F58080061A
:1029420075B0FF7580FFE4F50DF50EE4F50FF51097
:10295200E4FBFA74032BF58274003AF583E493F5F1
:10296200A0BC010FE50EAE0D7803C333CE33CED833
:10297200F98036BC0226E50EAE0D7803C333CE33A2
:10298200CED8F924BBF58274093EF583E5822BF596
:1029920082E5833AF583E493F5B08024E50EAE0D2B
:1029A2007803C333CE33CED8F924BBF58274093E03
:1029B200F583E5822BF582E5833AF583E493F5808E
:1029C200AF0112389B0BBB00010AEB64084A70830B
:1029D2000510E5107002050FC3940AE50F64809498
:1029E200805003022952050EE50E7002050DC394B4
:0C29F2000AE50D64809480500302294D1A
:0129FE0022B6
:0429FF00AC07A90573
:102A0300BC0105E4F5B0800EBC0205E4F580800648
:102A130075B0FF7580FFE4F50DF50EE4F50FF510C5
:102A2300E4FBFA74032BF58274003AF583E493F51F
:102A3300A0BC010FE50EAE0D7803C333CE33CED861
:102A4300F98036BC0226E50EAE0D7803C333CE33D0
:102A5300CED8F9240BF582740A3EF583E5822BF573
:102A630082E5833AF583E493F5B08024E50EAE0D59
:102A73007803C333CE33CED8F9240BF582740A3EE0
:102A8300F583E5822BF582E5833AF583E493F580BC
:102A9300AF0112389B0BBB00010AEB64084A708339
:102AA3000510E5107002050FC3940FE50F648094C1
:102AB300805003022A23050EE50E7002050DC39410
:0C2AC30019E50D648094805003022A1E67
:012ACF0022E4
:042AD000AC07A905A1
:102AD400BC0105E4F5B0800EBC0205E4F580800677
:102AE40075B0FF7580FFE4F50DF50EE4F50FF510F4
:102AF400E4FBFA74032BF58274003AF583E493F54E
:102B0400A0BC010FE50EAE0D7803C333CE33CED88F
:102B1400F98036BC0226E50EAE0D7803C333CE33FE
:102B2400CED8F924D3F582740A3EF583E5822BF5D9
:102B340082E5833AF583E493F5B08024E50EAE0D87
:102B44007803C333CE33CED8F924D3F582740A3E46
:102B5400F583E5822BF582E5833AF583E493F580EA
:102B6400AF0112389B0BBB00010AEB64084A708367
:102B74000510E5107002050FC3940AE50F648094F4
:102B8400805003022AF4050EE50E7002050DC3946D
:0C2B94000CE50D648094805003022AEFD1
:012BA0002212
:042BA100AC07A905CF
:102BA500BC0105E4F5B0800EBC0205E4F5808006A5
:102BB50075B0FF7580FFE4F50DF50EE4F50FF51022
:102BC500E4FBFA74032BF58274003AF583E493F57C
:102BD500A0BC010FE50EAE0D7803C333CE33CED8BE
:102BE500F98036BC0226E50EAE0D7803C333CE332D
:102BF500CED8F92433F582740B3EF583E5822BF5A7
:102C050082E5833AF583E493F5B08024E50EAE0DB5
:102C15007803C333CE33CED8F92433F582740B3E13
:102C2500F583E5822BF582E5833AF583E493F58018
:102C3500AF0112389B0BBB00010AEB64084A708395
:102C45000510E5107002050FC3940DE50F6480941F
:102C5500805003022BC5050EE50E7002050DC394C9
:0C2C65000DE50D648094805003022BC02C
:012C71002240
:042C7200AC07A905FD
:102C7600BC0105E4F5B0800EBC0205E4F5808006D3
:102C860075B0FF7580FFE4F50DF50EE4F50FF51050
:102C9600E4FBFA74032BF58274003AF583E493F5AA
:102CA600A0BC010FE50EAE0D7803C333CE33CED8EC
:102CB600F98036BC0226E50EAE0D7803C333CE335B
:102CC600CED8F9249BF582740B3EF583E5822BF56D
:102CD60082E5833AF583E493F5B08024E50EAE0DE4
:102CE6007803C333CE33CED8F9249BF582740B3EDA
:102CF600F583E5822BF582E5833AF583E493F58047
:102D0600AF0112389B0BBB00010AEB64084A7083C3
:102D16000510E5107002050FC3940BE50F6480944F
:102D2600805003022C96050EE50E7002050DC39425
:0C2D360028E50D648094805003022C916D
:012D4200226E
:042D4300AC07A9052B
:102D4700BC0105E4F5B0800EBC0205E4F580800601
:102D570075B0FF7580FFE4F50DF50EE4F50FF5107E
:102D6700E4FBFA74032BF58274003AF583E493F5D8
:102D7700A0BC010FE50EAE0D7803C333CE33CED81A
:102D8700F98036BC0226E50EAE0D7803C333CE3389
:102D9700CED8F924DBF582740C3EF583E5822BF55A
:102DA70082E5833AF583E493F5B08024E50EAE0D12
:102DB7007803C333CE33CED8F924DBF582740C3EC7
:102DC700F583E5822BF582E5833AF583E493F58075
:102DD700AF0112389B0BBB00010AEB64084A7083F2
:102DE7000510E5107002050FC3940CE50F6480947D
:102DF700805003022D67050EE50E7002050DC39482
:0C2E07001CE50D648094805003022D62D5
:012E1300229C
:042E1400AC07A90559
:102E1800BC0105E4F5B0800EBC0205E4F58080062F
:102E280075B0FF7580FFE4F50DF50EE4F50FF510AC
:102E3800E4FBFA74032BF58274003AF583E493F506
:102E4800A0BC010FE50EAE0D7803C333CE33CED848
:102E5800F98036BC0226E50EAE0D7803C333CE33B7
:102E6800CED8F924BBF582740D3EF583E5822BF5A7
:102E780082E5833AF583E493F5B08024E50EAE0D40
:102E88007803C333CE33CED8F924BBF582740D3E14
:102E9800F583E5822BF582E5833AF583E493F580A3
:102EA800AF0112389B0BBB00010AEB64084A708320
:102EB8000510E5107002050FC39412E50F648094A5
:102EC800805003022E38050EE50E7002050DC394DE
:0C2ED8000CE50D648094805003022E3342
:012EE40022CB
:041CEC00AC07A90593
:101CF000BC0105E4F5B0800EBC0205E4F580800669
:101D000075B0FF7580FFE4F50DF50EE4F50FF510E5
:101D1000E4FBFAE4F58074032BF58274003AF58352
:101D2000E493F5A0BC010FE50EAE0D7803C333CEEE
:101D300033CED8F98036BC0226E50EAE0D7803C34B
:101D400033CE33CED8F9241BF582740E3EF583E5ED
:101D5000822BF582E5833AF583E493F5B08024E5A0
:101D60000EAE0D7803C333CE33CED8F9241BF582E3
:101D7000740E3EF583E5822BF582E5833AF583E424
:101D800093F580AF0112389B0BBB00010AEB64088E
:101D90004A70800510E5107002050FC3940AE50F24
:101DA000648094805003021D10050EE50E7002053C
:0F1DB0000DC39434E50D648094805003021D0B25
:011DBF002201
:042EE500AC07A90588
:102EE900BC0105E4F5B0800EBC0205E4F58080065E
:102EF90075B0FF7580FFE4F50DF50EE4F50FF510DB
:102F0900E4FBFA74032BF58274003AF583E493F534
:102F1900A0BC010FE50EAE0D7803C333CE33CED876
:102F2900F98036BC0226E50EAE0D7803C333CE33E5
:102F3900CED8F924BBF582740F3EF583E5822BF5D3
:102F490082E5833AF583E493F5B08024E50EAE0D6E
:102F59007803C333CE33CED8F924BBF582740F3E40
:102F6900F583E5822BF582E5833AF583E493F580D1
:102F7900AF0112389B0BBB00010AEB64084A70834E
:102F89000510E5107002050FC3940AE50F648094DB
:102F9900805003022F09050EE50E7002050DC3943A
:0C2FA90008E50D648094805003022F04A2
:012FB50022F9
:042FB600AC07A905B6
:102FBA00BC0105E4F5B0800EBC0205E4F58080068C
:102FCA0075B0FF7580FFE4F50DF50EE4F50FF51009
:102FDA00E4FBFA74032BF58274003AF583E493F563
:102FEA00A0BC010FE50EAE0D7803C333CE33CED8A5
:102FFA00F98036BC0226E50EAE0D7803C333CE3314
:10300A00CED8F924FBF582740F3EF583E5822BF5C1
:10301A0082E5833AF583E493F5B08024E50EAE0D9C
:10302A007803C333CE33CED8F924FBF582740F3E2E
:10303A00F583E5822BF582E5833AF583E493F580FF
:10304A00AF0112389B0BBB00010AEB64084A70837C
:10305A000510E5107002050FC3940AE50F64809409
:10306A00805003022FDA050EE50E7002050DC39497
:0C307A002EE50D648094805003022FD5D9
:013086002227
:04308700AC07A905E4
:10308B00BC0105E4F5B0800EBC0205E4F5808006BA
:10309B0075B0FF7580FFE4F50DF50EE4F50FF51037
:1030AB00E4FBFA74032BF58274003AF583E493F591
:1030BB00A0BC010FE50EAE0D7803C333CE33CED8D3
:1030CB00F98036BC0226E50EAE0D7803C333CE3342
:1030DB00CED8F9246BF58274113EF583E5822BF57E
:1030EB0082E5833AF583E493F5B08024E50EAE0DCB
:1030FB007803C333CE33CED8F9246BF58274113EEB
:10310B00F583E5822BF582E5833AF583E493F5802D
:10311B00AF0112389B0BBB00010AEB64084A7083AA
:10312B000510E5107002050FC3940AE50F64809437
:10313B008050030230AB050EE50E7002050DC394F3
:0C314B0015E50D6480948050030230A64E
:013157002255
:04315800AC07A90512
:10315C00BC0105E4F5B0800EBC0205E4F5808006E8
:10316C0075B0FF7580FFE4F50DF50EE4F50FF51065
:10317C00E4FBFA74032BF58274003AF583E493F5BF
:10318C00A0BC010FE50EAE0D7803C333CE33CED801
:10319C00F98036BC0226E50EAE0D7803C333CE3370
:1031AC00CED8F92413F58274123EF583E5822BF503
:1031BC0082E5833AF583E493F5B08024E50EAE0DF9
:1031CC007803C333CE33CED8F92413F58274123E70
:1031DC00F583E5822BF582E5833AF583E493F5805C
:1031EC00AF0112389B0BBB00010AEB64084A7083D9
:1031FC000510E5107002050FC3940AE50F64809466
:10320C0080500302317C050EE50E7002050DC3944F
:0C321C0024E50D6480948050030231779B
:013228002283
:04322900AC07A90540
:10322D00BC0105E4F5B0800EBC0205E4F580800616
:10323D0075B0FF7580FFE4F50DF50EE4F50FF51093
:10324D00E4FBFA74032BF58274003AF583E493F5ED
:10325D00A0BC010FE50EAE0D7803C333CE33CED82F
:10326D00F98036BC0226E50EAE0D7803C333CE339E
:10327D00CED8F92433F58274133EF583E5822BF510
:10328D0082E5833AF583E493F5B08024E50EAE0D27
:10329D007803C333CE33CED8F92433F58274133E7D
:1032AD00F583E5822BF582E5833AF583E493F5808A
:1032BD00AF0112389B0BBB00010AEB64084A708307
:1032CD000510E5107002050FC39409E50F64809495
:1032DD0080500302324D050EE50E7002050DC394AC
:0C32ED0009E50D64809480500302324813
:0132F90022B2
:0432FA00AC07A9056F
:1032FE00BC0105E4F5B0800EBC0205E4F580800645
:10330E0075B0FF7580FFE4F50DF50EE4F50FF510C1
:10331E00E4FBFA74032BF58274003AF583E493F51B
:10332E00A0BC010FE50EAE0D7803C333CE33CED85D
:10333E00F98036BC0226E50EAE0D7803C333CE33CC
:10334E00CED8F9247BF58274133EF583E5822BF5F6
:10335E0082E5833AF583E493F5B08024E50EAE0D55
:10336E007803C333CE33CED8F9247BF58274133E63
:10337E00F583E5822BF582E5833AF583E493F580B8
:10338E00AF0112389B0BBB00010AEB64084A708335
:10339E000510E5107002050FC39416E50F648094B6
:1033AE0080500302331E050EE50E7002050DC39408
:0C33BE0014E50D64809480500302331964
:0133CA0022E0
:0433CB00AC07A9059D
:1033CF00BC0105E4F5B0800EBC0205E4F580800673
:1033DF0075B0FF7580FFE4F50DF50EE4F50FF510F0
:1033EF00E4FBFA74032BF58274003AF583E493F54A
:1033FF00A0BC010FE50EAE0D7803C333CE33CED88C
:10340F00F98036BC0226E50EAE0D7803C333CE33FA
:10341F00CED8F9241BF58274143EF583E5822BF583
:10342F0082E5833AF583E493F5B08024E50EAE0D83
:10343F007803C333CE33CED8F9241BF58274143EF0
:10344F00F583E5822BF582E5833AF583E493F580E6
:10345F00AF0112389B0BBB00010AEB64084A708363
:10346F000510E5107002050FC39416E50F648094E4
:10347F008050030233EF050EE50E7002050DC39465
:0C348F0019E50D6480948050030233EABC
:01349B00220E
:04349C00AC07A905CB
:1034A000BC0105E4F5B0800EBC0205E4F5808006A1
:1034B00075B0FF7580FFE4F50DF50EE4F50FF5101E
:1034C000E4FBFA74032BF58274003AF583E493F578
:1034D000A0BC010FE50EAE0D7803C333CE33CED8BA
:1034E000F98036BC0226E50EAE0D7803C333CE3329
:1034F000CED8F924E3F58274143EF583E5822BF5EA
:1035000082E5833AF583E493F5B08024E50EAE0DB1
:103510007803C333CE33CED8F924E3F58274143E56
:10352000F583E5822BF582E5833AF583E493F58014
:10353000AF0112389B0BBB00010AEB64084A708391
:103540000510E5107002050FC3940CE50F6480941C
:103550008050030234C0050EE50E7002050DC394C1
:0C3560001EE50D6480948050030234BB13
:01356C00223C
:04356D00AC07A905F9
:10357100BC0105E4F5B0800EBC0205E4F5808006CF
:1035810075B0FF7580FFE4F50DF50EE4F50FF5104C
:10359100E4FBFA74032BF58274003AF583E493F5A6
:1035A100A0BC010FE50EAE0D7803C333CE33CED8E8
:1035B100F98036BC0226E50EAE0D7803C333CE3357
:1035C100CED8F924D3F58274153EF583E5822BF527
:1035D10082E5833AF583E493F5B08024E50EAE0DE0
:1035E1007803C333CE33CED8F924D3F58274153E94
:1035F100F583E5822BF582E5833AF583E493F58043
:10360100AF0112389B0BBB00010AEB64084A7083BF
:103611000510E5107002050FC3940AE50F6480944C
:10362100805003023591050EE50E7002050DC3941D
:0C36310006E50D64809480500302358C87
:01363D00226A
:101603007F0112380B7F0112383F75A0FF7FE8126C
:10161300389BAD087F0112356DAD087F0112356D22
:10162300AD087F02121DC0AD087F03121DC0AD08B7
:101633007F01121969AD087F03121969AD087F0292
:1016430012356DAD087F01122C72AD087F01121A9D
:1016530056AD087F02121A56AD087F03121A56AD13
:10166300087F02121F62AD087F01121F62AD087F5F
:101673000312356DAD087F03121F62AD087F01129F
:101683002033AD087F02121E91AD087F0312203371
:10169300AD087F02122033AD087F01121E91121B89
:1016A30043121B43121B43121B43121B43AD087F00
:1016B30003121E91AD087F01122104AD087F0212AF
:1016C3002104AD087F03122104AD087F011221D547
:1016D300AD087F021221D5AD087F031221D5AD08D5
:1016E3007F011222A6AD087F021222A6AD087F0356
:1016F3001222A6AD087F01121C18AD087F02121C2E
:1017030018AD087F03121C18AD087F01122377ADB3
:10171300087F02122377AD087F03122377AD087F7A
:1017230001121DC0AD087F02121B47AD087F0212D4
:101733001B47AD087F02121B47AD087F02121B47F0
:10174300AD087F02121B47AD087F02121969AD086D
:101753007F0112363EAD087F0212363EAD087F038D
:1017630012363EAD087F01122448AD087F021224D1
:1017730048AD087F03122448AD087F01122519AD37
:10178300087F02122519AD087F03122519AD087FC2
:10179300011225EAAD087F021225EAAD087F031284
:1017A30025EAAD087F03121B47AD087F03121B47D1
:1017B300AD087F03121B47AD087F03121B47AD081B
:1017C3007F03121B47AD087F011226BBAD087F02C2
:1017D3001226BBAD087F031226BBAD087F0112277B
:1017E3008CAD087F0212278CAD087F0312278CADC6
:1017F300087F0112285DAD087F0212285DAD087FC6
:101803000312285DAD087F0112292EAD087F021255
:10181300292EAD087F0312292EAD087F011229FF5F
:10182300AD087F021229FFAD087F031229FFAD081F
:101833007F01122AD0AD087F02122AD0AD087F03A0
:10184300122AD0AD087F01122BA1AD087F02122B03
:10185300A1AD087F03122BA1AD087F01122C72AD3D
:10186300087F02122C72AD087F03122C72AD087F21
:1018730001122D43AD087F02122D43AD087F0312E1
:101883002D43AD087F01122E14AD087F02122E14D2
:10189300AD087F03122E14AD087F01121CECAD08B6
:1018A3007F02121CECAD087F03121CECAD087F0114
:1018B300122EE5AD087F02122EE5AD087F03122E2E
:1018C300E5AD087F01122FB6AD087F02122FB6AD2A
:1018D300087F03122FB6AD087F02123087AD087F51
:1018E30001123087AD087F03123087AD087F0112E4
:1018F3003158AD087F02123158AD087F03123229E7
:10190300AD087F03123158AD087F01123229AD08AB
:101913007F02123229AD087F011232FAAD087F022D
:101923001232FAAD087F011233CBAD087F031232B6
:10193300FAAD087F021233CBAD087F0212349CAD9F
:10194300087F031233CBAD087F0112349CAD087FAF
:101953000312349CE4FF12380BE4FF12383F75A0E6
:06196300FF7FD002389B5B
:103885007594FFE4F59375B2FFF5B1439206439144
:063895000612160380FB81
:10370D00023885E493A3F8E493A34003F68001F215
:10371D0008DFF48029E493A3F85407240CC8C333BD
:10372D00C4540F4420C8834004F456800146F6DF8C
:10373D00E4800B01020408102040809038AFE47E35
:10374D00019360BCA3FF543F30E509541FFEE49381
:10375D00A360010ECF54C025E060A840B8E493A348
:10376D00FAE493A3F8E493A3C8C582C8CAC583CA73
:10377D00F0A3C8C582C8CAC583CADFE9DEE780BE2B
:0138B800000F
:00000001FF
